:060000000A128A11692FAB
:100EA00001340234043408341034203440348034A3
:100EB0007E088A007F08820058270A128A11800063
:100EC000840A04087D0603190034FF0A0319FE0A88
:100ED0005C2F83133630FD000730FE005030FF00DA
:100EE0002E3084000A128A115C270A128A118301AB
:100EF0000A128A117B2F83120313AA01AB018316F6
:100F000003138601203084002E30F0000408F10025
:100F10000830F2007008840083130008F300F00A20
:100F20007108840073088000F10AF20B8A2F982F51
:100F300083120313AA01AB01AC01AD012D08803A65
:100F4000FF0080307F02031DA72F08302C02031CF6
:100F5000AA2FAB2FAD2F982F982F831203132C0895
:100F6000203E8400831300082A07AA002B080318D8
:100F70002B0AAB002A088600D030A8008A30A900CE
:100F80002908803AFF00F5307F02031DC92F313058
:100F90002802031CCC2FCD2FCF2FE52FE52F0130BA
:100FA00083120313A8070318A90A0030A907290808
:100FB000803AFF00F5307F02031DE02F3130280218
:100FC000031CE32FE42FCF2FE52F013083120313EF
:100FD000AC070318AD0A0030AD072D08803AFF00BA
:100FE00080307F02031DF62F08302C02031CF92FDE
:100FF000FA2FAD2F982F982F982F0A128A110028B8
:00000001FF
