:060000000A128A11692FAB
:100EA00080344034203410340834043402340134A3
:100EB0007E088A007F08820058270A128A11800063
:100EC000840A04087D0603190034FF0A0319FE0A88
:100ED0005C2F83133630FD000730FE005030FF00DA
:100EE0002E3084000A128A115C270A128A118301AB
:100EF0000A128A117B2F83120313AA01AB018316F6
:100F000003138601203084002E30F0000408F10025
:100F10000830F2007008840083130008F300F00A20
:100F20007108840073088000F10AF20B8A2F831283
:100F30000313AC01AD012D08803AFF0080307F0221
:100F4000031DA42F08302C02031CA72FA82FAA2FA3
:100F5000F82FF82F831203132C08203E84008313EC
:100F600000082A07AA002B0803182B0AAB002A083E
:100F70008600D030A8008A30A9002908803AFF00F6
:100F8000F5307F02031DC62F31302802031CC92F04
:100F9000CA2FCC2FE22FE22F013083120313A807B0
:100FA0000318A90A0030A9072908803AFF00F53084
:100FB0007F02031DDD2F31302802031CE02FE12FBB
:100FC000CC2FE22F013083120313AC070318AD0AB4
:100FD0000030AD072D08803AFF0080307F02031DEE
:100FE000F32F08302C02031CF62FF72FAA2FF82F0F
:100FF000831203138601FC2FFC2F0A128A1100288A
:00000001FF
