:060000000A128A113D2FD7
:100E480080344034203410340834043402340134FB
:100E58007E088A007F0882002C270A128A118000E7
:100E6800840A04087D0603190034FF0A0319FE0AE0
:100E7800302F83133630FD000730FE002430FF008A
:100E88002E3084000A128A1130270A128A1183012F
:100E98000A128A114F2F83120313A801A90183167E
:100EA80003138601203084002E30F0000408F1007E
:100EB8000830F2007008840083130008F300F00A79
:100EC8007108840073088000F10AF20B5E2F6C2F02
:100ED80083120313A801A901AA01AB012B08803AC8
:100EE800FF0080307F02031D7B2F08302A02031C7D
:100EF8007E2F7F2F812FCF2FCF2F831203132A0806
:100F0800203E8400831300082807A8002908031836
:100F1800290AA90028088600D030AC008A30AD0024
:100F28002D08803AFF00F5307F02031D9D2F3130D8
:100F38002C02031CA02FA12FA32FB92FB92F0130EA
:100F480083120313AC070318AD0A0030AD072D0850
:100F5800803AFF00F5307F02031DB42F31302C0298
:100F6800031CB72FB82FA32FB92F013083120313F7
:100F7800AA070318AB0A0030AB072B08803AFF001A
:100F880080307F02031DCA2F08302A02031CCD2F90
:100F9800CE2F812FCF2F831203138601D030AC00C0
:100FA8008A30AD002D08803AFF00F5307F02031D1E
:100FB800DF2F31302C02031CE22FE32FE52F6C2F9B
:100FC8006C2F013083120313AC070318AD0A0030ED
:100FD800AD072D08803AFF00F5307F02031DF62F7C
:100FE80031302C02031CF92FFA2FE52F6C2F6C2FB0
:080FF8006C2F0A128A11002877
:00000001FF
