:060000000A128A11062F0E
:100DDA00083404340234013480344034203410346A
:100DEA007E088A007F088200F5260A128A1180008E
:100DFA00840A04087D0603190034FF0A0319FE0A4F
:100E0A00F92E83133630FD000630FE00ED30FF0068
:100E1A002E3084000A128A11F9260A128A118301D5
:100E2A000A128A11182F83160313860120308400B0
:100E3A002E30F0000408F1000830F2007008840037
:100E4A0083130008F300F00A710884007308800015
:100E5A00F10AF20B232F312F83120313A801A901E0
:100E6A008601D030AC008A30AD002D08803AFF00F0
:100E7A00F5307F02031D432F31302C02031C462F0D
:100E8A00472F492F5F2F5F2F013083120313AC07BF
:100E9A000318AD0A0030AD072D08803AFF00F5307F
:100EAA007F02031D5A2F31302C02031C5D2F5E2F47
:100EBA00492F5F2F83120313AA01AB012B08803A33
:100ECA00FF0080307F02031D6C2F04302A02031CAE
:100EDA006F2F702F722FCF2FCF2F831203132A0851
:100EEA00013EFF3A013E083E203E8400831300087B
:100EFA00F0002A08203E840000087007F100F20181
:100F0A00F20D28087107A80029080318290A720790
:100F1A00A90028088600D030AC008A30AD002D0820
:100F2A00803AFF00F5307F02031D9D2F31302C02DD
:100F3A00031CA02FA12FA32FB92FB92F0130831281
:100F4A000313AC070318AD0A0030AD072D08803A29
:100F5A00FF00F5307F02031DB42F31302C02031C31
:100F6A00B72FB82FA32FB92F013083120313AA0763
:100F7A000318AB0A0030AB072B08803AFF00803019
:100F8A007F02031DCA2F04302A02031CCD2FCE2F45
:100F9A00722FCF2F831203138601D030AC008A3010
:100FAA00AD002D08803AFF00F5307F02031DDF2FC8
:100FBA0031302C02031CE22FE32FE52F312F312F82
:100FCA00013083120313AC070318AD0A0030AD07D2
:100FDA002D08803AFF00F5307F02031DF62F3130CD
:100FEA002C02031CF92FFA2FE52F312F312F312F25
:060FFA000A128A11002812
:00000001FF
