:060000000A128A11FF2E16
:100DCC000134023404340834103420344034803478
:100DDC007E088A007F088200EE260A128A118000A3
:100DEC00840A04087D0603190034FF0A0319FE0A5D
:100DFC00F22E83133630FD000630FE00E630FF0085
:100E0C002E3084000A128A11F2260A128A118301EA
:100E1C000A128A11112F83160313860120308400C5
:100E2C002E30F0000408F1000830F2007008840045
:100E3C0083130008F300F00A710884007308800023
:100E4C00F10AF20B1C2FFF3083120313A8000030A1
:100E5C00A900FF308600D030AC008A30AD002D08E0
:100E6C00803AFF00F5307F02031D3E2F31302C02FB
:100E7C00031C412F422F442F5A2F5A2F013083121B
:100E8C000313AC070318AD0A0030AD072D08803AE8
:100E9C00FF00F5307F02031D552F31302C02031C4F
:100EAC00582F592F442F5A2F83120313AA01AB0129
:100EBC002B08803AFF0080307F02031D672F04301F
:100ECC002A02031C6A2F6B2F6D2FCF2FCF2F83126B
:100EDC0003132A08013EFF3A013E083E203E8400DF
:100EEC0083130008F0002A08203E840000087007D5
:100EFC00F100F201F20DF109F209F10A0319F20AFB
:100F0C0028087107A80029080318290A7207A900E4
:100F1C0028088600D030AC008A30AD002D08803A0D
:100F2C00FF00F5307F02031D9D2F31302C02031C76
:100F3C00A02FA12FA32FB92FB92F01308312031388
:100F4C00AC070318AD0A0030AD072D08803AFF003E
:100F5C00F5307F02031DB42F31302C02031CB72F48
:100F6C00B82FA32FB92F013083120313AA0703182C
:100F7C00AB0A0030AB072B08803AFF0080307F02B1
:100F8C00031DCA2F04302A02031CCD2FCE2F6D2F28
:100F9C00CF2F831203138601D030AC008A30AD0002
:100FAC002D08803AFF00F5307F02031DDF2F313012
:100FBC002C02031CE22FE32FE52FFC2FFC2F01301A
:100FCC0083120313AC070318AD0A0030AD072D08CC
:100FDC00803AFF00F5307F02031DF62F31302C02D2
:100FEC00031CF92FFA2FE52FFC2FFC2FFC2F0A12D4
:040FFC008A1100282E
:00000001FF
