:060000000A128A11402FD4
:100E4E0001340234043408341034203440348034F5
:100E5E007E088A007F0882002F270A128A118000DE
:100E6E00840A04087D0603190034FF0A0319FE0ADA
:100E7E00332F83133630FD000730FE002730FF007E
:100E8E002E3084000A128A1133270A128A11830126
:100E9E000A128A11522F8316031386012030840002
:100EAE002E30F0000408F1000830F20070088400C3
:100EBE0083130008F300F00A7108840073088000A1
:100ECE00F10AF20B5D2F83120313AA01AB012B085B
:100EDE00803AFF0080307F02031D772F04302A02F4
:100EEE00031C7A2F7B2F7D2FCF2FCF2F831203132F
:100EFE002A08043E203E840083130008F0002A08CE
:100F0E00203E840000087007A800A901A90D28083A
:100F1E008600D030AC008A30AD002D08803AFF003C
:100F2E00F5307F02031D9D2F31302C02031CA02FA4
:100F3E00A12FA32FB92FB92F013083120313AC07A2
:100F4E000318AD0A0030AD072D08803AFF00F530CA
:100F5E007F02031DB42F31302C02031CB72FB82F84
:100F6E00A32FB92F013083120313AA070318AB0A5C
:100F7E000030AB072B08803AFF0080307F02031D44
:100F8E00CA2F04302A02031CCD2FCE2F7D2FCF2F38
:100F9E00831203138601D030AC008A30AD002D08C9
:100FAE00803AFF00F5307F02031DDF2F31302C0217
:100FBE00031CE22FE32FE52FFC2FFC2F01308312B1
:100FCE000313AC070318AD0A0030AD072D08803AA5
:100FDE00FF00F5307F02031DF62F31302C02031C6B
:100FEE00F92FFA2FE52FFC2FFC2FFC2F0A128A1156
:020FFE000028C9
:00000001FF
