:060000000A128A11B52F5F
:100F6A0083010A128A11B92F831603138801071005
:100F7A008710BF2F8312031307148710603088006D
:100F8A000A128A11DA270A128A1183120313071026
:100F9A008714B63088000A128A11DA270A128A11CF
:100FAA00BF2FBF2F0A128A110028F001F101710820
:100FBA00803AFF0080307F02031DE52F1530700252
:100FCA00031CE82FE92FEB2FFF2FFF2F0130F0072B
:100FDA000318F10A0030F1077108803AFF008030E7
:100FEA007F02031DFA2F15307002031CFD2FFE2FFE
:060FFA00EB2FFF2F0800A1
:02400E007A1F17
:00000001FF
