:060000000A128A114B2FC9
:100E640001340234043408341034203440348034DF
:100E74007E088A007F0882003A270A128A118000BD
:100E8400840A04087D0603190034FF0A0319FE0AC4
:100E94003E2F83133430FD000730FE003230FF0054
:100EA4002C3084000A128A113E270A128A11830107
:100EB4000A128A115D2F83160313860120308400E1
:100EC4002C30F0000408F1000830F20070088400AF
:100ED40083130008F300F00A71088400730880008B
:100EE400F10AF20B682F83120313A801A901290840
:100EF400803AFF0080307F02031D822F08302802D1
:100F0400031C852F862F882FCF2FCF2F83120313F7
:100F14002808203E8400831300088600D030AA00ED
:100F24008A30AB002B08803AFF00F5307F02031DA6
:100F34009D2F31302A02031CA02FA12FA32FB92FDC
:100F4400B92F013083120313AA070318AB0A003028
:100F5400AB072B08803AFF00F5307F02031DB42F46
:100F640031302A02031CB72FB82FA32FB92F013019
:100F740083120313A8070318A90A0030A907290834
:100F8400803AFF0080307F02031DCA2F08302802F8
:100F9400031CCD2FCE2F882FCF2F8312031386014E
:100FA400D030AA008A30AB002B08803AFF00F5301D
:100FB4007F02031DDF2F31302A02031CE22FE32FAF
:100FC400E52FFC2FFC2F013083120313AA0703180B
:100FD400AB0A0030AB072B08803AFF00F5307F02E4
:100FE400031DF62F31302A02031CF92FFA2FE52FA7
:0C0FF400FC2FFC2FFC2F0A128A11002891
:00000001FF
