:060000000A128A110D2F07
:100DE400FC346034DA34F2346634B634BE34E0347D
:100DF400FE34E6347E088A007F088200FC260A124C
:100E04008A118000840A04087D0603190034FF0A4D
:100E14000319FE0A002F83133A30FD000630FE004A
:100E2400F230FF00303084000A128A1100270A12BF
:100E34008A1183010A128A11472F2430F000FA30F4
:100E4400F1007108803AFF0085307F02031D2C2FCA
:100E5400DC307002031C2F2F302F322F462F462FE9
:100E64000130F0070318F10A0030F1077108803AE5
:100E7400FF0085307F02031D412FDC307002031C0C
:100E8400442F452F322F462F080083160313880161
:100E940007108710203084003030F2000408F3007B
:100EA4000A30F4007208840083130008F500F20A83
:100EB4007308840075088000F30AF40B542F622F22
:100EC40083120313AC01AD012D08803AFF0080307A
:100ED4007F02031D6F2F0A302C02031C722F732F05
:100EE400752F622F622F83120313AE01AF012F08F7
:100EF400803AFF0080307F02031D822F0A302E02C9
:100F0400031C852F862F882FE52FE52F83120313CB
:100F1400AA01AB012B08803AFF0080307F02031D39
:100F2400952F0B302A02031C982F992F9B2FCF2F1C
:100F3400CF2F83120313071487102E08203E84003A
:100F44008313000888000A128A111F270A128A11C3
:100F540083120313071087142C08203E8400831384
:100F6400000888000A128A111F270A128A11013008
:100F740083120313AA070318AB0A0030AB072B082C
:100F8400803AFF0080307F02031DCA2F0B302A02F3
:100F9400031CCD2FCE2F9B2FCF2F01308312031391
:100FA400AE070318AF0A0030AF072F08803AFF00DE
:100FB40080307F02031DE02F0A302E02031CE32F32
:100FC400E42F882FE52F013083120313AC07031895
:100FD400AD0A0030AD072D08803AFF0080307F0253
:100FE400031DF62F0A302C02031CF92FFA2F752F3C
:0C0FF400622F622F622F0A128A1100285F
:02400E007AFF37
:00000001FF
