:060000000A128A11932E82
:100CF000FC346034DA34F2346634B634BE34E03472
:100D0000FE34E6347E088A007F08820082260A12BA
:100D10008A118000840A04087D0603190034FF0A42
:100D20000319FE0A862E83133E30FD000630FE00B6
:100D30007830FF00343084000A128A1186260A12A5
:100D40008A1183010A128A11CD2E0C30F000FE3078
:100D5000F1007108803AFF0081307F02031DB22E3E
:100D6000F4307002031CB52EB62EB82ECC2ECC2E2D
:100D70000130F0070318F10A0030F1077108803ADA
:100D8000FF0081307F02031DC72EF4307002031C68
:100D9000CA2ECB2EB82ECC2E080083160313880142
:100DA0000710871007118711203084003430F200BB
:100DB0000408F3000A30F40072088400831300086A
:100DC000F500F20A7308840075088000F30AF40B3A
:100DD000DC2EEA2E83120313AC01AD012D08803AFC
:100DE000FF0080307F02031DF72E0A302C02031C07
:100DF000FA2EFB2EFD2EEA2EEA2E83120313AE01ED
:100E0000AF012F08803AFF0080307F02031D0A2FB8
:100E10000A302E02031C0D2F0E2F102FE52FE52F69
:100E200083120313B001B1013108803AFF00803012
:100E30007F02031D1D2F0B303002031C202F212F9A
:100E4000232FCF2FCF2F83120313B201B301330807
:100E5000803AFF0080307F02031D302F0A303202BB
:100E6000031C332F342F362FB92FB92F83120313BE
:100E7000AA01AB012B08803AFF0080307F02031DDE
:100E8000432F0A302A02031C462F472F492FA32F36
:100E9000A32F831203130714871007118711320839
:100EA000203E84008313000888000A128A11A526B8
:100EB0000A128A118312031307108714071187116E
:100EC0003008203E84008313000888000A128A112B
:100ED000A5260A128A11831203130710871007151B
:100EE00087112E08203E84008313000888000A1210
:100EF0008A11A5260A128A1183120313071087107C
:100F0000071187152C08203E8400831300088800F1
:100F10000A128A11A5260A128A11013083120313BC
:100F2000AA070318AB0A0030AB072B08803AFF0072
:100F300080307F02031D9E2F0A302A02031CA12F3E
:100F4000A22F492FA32F013083120313B2070318D6
:100F5000B30A0030B3073308803AFF0080307F02C5
:100F6000031DB42F0A303202031CB72FB82F362FBF
:100F7000B92F013083120313B0070318B10A0030F0
:100F8000B1073108803AFF0080307F02031DCA2F6D
:100F90000B303002031CCD2FCE2F232FCF2F01304B
:100FA00083120313AE070318AF0A0030AF072F08F0
:100FB000803AFF0080307F02031DE02F0A302E02AE
:100FC000031CE32FE42F102FE52F013083120313AE
:100FD000AC070318AD0A0030AD072D08803AFF00BA
:100FE00080307F02031DF62F0A302C02031CF92FDC
:100FF000FA2FFD2EEA2EEA2EEA2E0A128A11002876
:02400E007AFF37
:00000001FF
