:060000000A128A11D12E44
:100D6C00FC346034DA34F2346634B634BE34E034F5
:100D7C00FE34E6347E088A007F088200C0260A1200
:100D8C008A118000840A04087D0603190034FF0AC6
:100D9C000319FE0AC42E83133C30FD000630FE00FE
:100DAC00B630FF00323084000A128A11C4260A12AF
:100DBC008A1183010A128A110B2F1830F000FC30B3
:100DCC00F1007108803AFF0083307F02031DF02E82
:100DDC00E8307002031CF32EF42EF62E0A2F0A2F85
:100DEC000130F0070318F10A0030F1077108803A5E
:100DFC00FF0083307F02031D052FE8307002031CB7
:100E0C00082F092FF62E0A2F0800831603138801CA
:100E1C00071087100711203084003230F2000408CC
:100E2C00F3000A30F4007208840083130008F50004
:100E3C00F20A7308840075088000F30AF40B192F6A
:100E4C00272F83120313AC01AD012D08803AFF004C
:100E5C0080307F02031D342F0A302C02031C372FE5
:100E6C00382F3A2F272F272F83120313AE01AF01F0
:100E7C002F08803AFF0080307F02031D472F0A3075
:100E8C002E02031C4A2F4B2F4D2FE52FE52F8312DB
:100E9C000313B001B1013108803AFF0080307F02AA
:100EAC00031D5A2F0B303002031C5D2F5E2F602F59
:100EBC00CF2FCF2F83120313AA01AB012B08803A3B
:100ECC00FF0080307F02031D6D2F0A302A02031CA5
:100EDC00702F712F732FB92FB92F8312031307148F
:100EEC00871007113008203E840083130008880007
:100EFC000A128A11E3260A128A11831203130710AD
:100F0C00871407112E08203E8400831300088800E4
:100F1C000A128A11E3260A128A118312031307108C
:100F2C00871007152C08203E8400831300088800C6
:100F3C000A128A11E3260A128A1101308312031352
:100F4C00AA070318AB0A0030AB072B08803AFF0046
:100F5C0080307F02031DB42F0A302A02031CB72FE6
:100F6C00B82F732FB92F013083120313B007031856
:100F7C00B10A0030B1073108803AFF0080307F029F
:100F8C00031DCA2F0B303002031CCD2FCE2F602F28
:100F9C00CF2F013083120313AE070318AF0A0030B2
:100FAC00AF072F08803AFF0080307F02031DE02F2F
:100FBC000A302E02031CE32FE42F4D2FE52F0130B6
:100FCC0083120313AC070318AD0A0030AD072D08CC
:100FDC00803AFF0080307F02031DF62F0A302C026E
:100FEC00031CF92FFA2F3A2F272F272F272F0A12FE
:040FFC008A1100282E
:02400E007AFF37
:00000001FF
